{"abi":[{"inputs":[{"internalType":"uint256","name":"min","type":"uint256"}],"name":"createProject","outputs":[],"stateMutability":"nonpayable","type":"function"},{"inputs":[{"internalType":"uint256","name":"","type":"uint256"}],"name":"deployedProjects","outputs":[{"internalType":"address","name":"","type":"address"}],"stateMutability":"view","type":"function"},{"inputs":[],"name":"get_deployed_projects","outputs":[{"internalType":"address[]","name":"","type":"address[]"}],"stateMutability":"view","type":"function"}],"devdoc":{"kind":"dev","methods":{},"version":1},"evm":{"assembly":"    /* \"BlockFundProject\":70:469  contract ProjectManager {... */\n  mstore(0x40, 0x80)\n  callvalue\n  dup1\n  iszero\n  tag_1\n  jumpi\n  0x00\n  dup1\n  revert\ntag_1:\n  pop\n  dataSize(sub_0)\n  dup1\n  dataOffset(sub_0)\n  0x00\n  codecopy\n  0x00\n  return\nstop\n\nsub_0: assembly {\n        /* \"BlockFundProject\":70:469  contract ProjectManager {... */\n      mstore(0x40, 0x80)\n      callvalue\n      dup1\n      iszero\n      tag_1\n      jumpi\n      0x00\n      dup1\n      revert\n    tag_1:\n      pop\n      jumpi(tag_2, lt(calldatasize, 0x04))\n      shr(0xe0, calldataload(0x00))\n      dup1\n      0x77137b75\n      eq\n      tag_3\n      jumpi\n      dup1\n      0x992034d7\n      eq\n      tag_4\n      jumpi\n      dup1\n      0x9ec6deaf\n      eq\n      tag_5\n      jumpi\n    tag_2:\n      0x00\n      dup1\n      revert\n        /* \"BlockFundProject\":355:467  function get_deployed_projects() public view returns (address[] memory) {... */\n    tag_3:\n      tag_6\n      tag_7\n      jump\t// in\n    tag_6:\n      mload(0x40)\n      dup1\n      dup1\n      0x20\n      add\n      dup3\n      dup2\n      sub\n      dup3\n      mstore\n      dup4\n      dup2\n      dup2\n      mload\n      dup2\n      mstore\n      0x20\n      add\n      swap2\n      pop\n      dup1\n      mload\n      swap1\n      0x20\n      add\n      swap1\n      0x20\n      mul\n      dup1\n      dup4\n      dup4\n      0x00\n    tag_8:\n      dup4\n      dup2\n      lt\n      iszero\n      tag_10\n      jumpi\n      dup1\n      dup3\n      add\n      mload\n      dup2\n      dup5\n      add\n      mstore\n      0x20\n      dup2\n      add\n      swap1\n      pop\n      jump(tag_8)\n    tag_10:\n      pop\n      pop\n      pop\n      pop\n      swap1\n      pop\n      add\n      swap3\n      pop\n      pop\n      pop\n      mload(0x40)\n      dup1\n      swap2\n      sub\n      swap1\n      return\n        /* \"BlockFundProject\":144:345  function createProject(uint min) public {... */\n    tag_4:\n      tag_11\n      0x04\n      dup1\n      calldatasize\n      sub\n      0x20\n      dup2\n      lt\n      iszero\n      tag_12\n      jumpi\n      0x00\n      dup1\n      revert\n    tag_12:\n      dup2\n      add\n      swap1\n      dup1\n      dup1\n      calldataload\n      swap1\n      0x20\n      add\n      swap1\n      swap3\n      swap2\n      swap1\n      pop\n      pop\n      pop\n      tag_13\n      jump\t// in\n    tag_11:\n      stop\n        /* \"BlockFundProject\":100:133  address[] public deployedProjects */\n    tag_5:\n      tag_14\n      0x04\n      dup1\n      calldatasize\n      sub\n      0x20\n      dup2\n      lt\n      iszero\n      tag_15\n      jumpi\n      0x00\n      dup1\n      revert\n    tag_15:\n      dup2\n      add\n      swap1\n      dup1\n      dup1\n      calldataload\n      swap1\n      0x20\n      add\n      swap1\n      swap3\n      swap2\n      swap1\n      pop\n      pop\n      pop\n      tag_16\n      jump\t// in\n    tag_14:\n      mload(0x40)\n      dup1\n      dup3\n      0xffffffffffffffffffffffffffffffffffffffff\n      and\n      dup2\n      mstore\n      0x20\n      add\n      swap2\n      pop\n      pop\n      mload(0x40)\n      dup1\n      swap2\n      sub\n      swap1\n      return\n        /* \"BlockFundProject\":355:467  function get_deployed_projects() public view returns (address[] memory) {... */\n    tag_7:\n        /* \"BlockFundProject\":409:425  address[] memory */\n      0x60\n        /* \"BlockFundProject\":444:460  deployedProjects */\n      0x00\n        /* \"BlockFundProject\":437:460  return deployedProjects */\n      dup1\n      sload\n      dup1\n      0x20\n      mul\n      0x20\n      add\n      mload(0x40)\n      swap1\n      dup2\n      add\n      0x40\n      mstore\n      dup1\n      swap3\n      swap2\n      swap1\n      dup2\n      dup2\n      mstore\n      0x20\n      add\n      dup3\n      dup1\n      sload\n      dup1\n      iszero\n      tag_18\n      jumpi\n      0x20\n      mul\n      dup3\n      add\n      swap2\n      swap1\n      0x00\n      mstore\n      keccak256(0x00, 0x20)\n      swap1\n    tag_19:\n      dup2\n      0x00\n      swap1\n      sload\n      swap1\n      0x0100\n      exp\n      swap1\n      div\n      0xffffffffffffffffffffffffffffffffffffffff\n      and\n      0xffffffffffffffffffffffffffffffffffffffff\n      and\n      dup2\n      mstore\n      0x20\n      add\n      swap1\n      0x01\n      add\n      swap1\n      dup1\n      dup4\n      gt\n      tag_19\n      jumpi\n    tag_18:\n      pop\n      pop\n      pop\n      pop\n      pop\n      swap1\n      pop\n        /* \"BlockFundProject\":355:467  function get_deployed_projects() public view returns (address[] memory) {... */\n      swap1\n      jump\t// out\n        /* \"BlockFundProject\":144:345  function createProject(uint min) public {... */\n    tag_13:\n        /* \"BlockFundProject\":194:212  Project newProject */\n      0x00\n        /* \"BlockFundProject\":227:237  msg.sender */\n      caller\n        /* \"BlockFundProject\":239:242  min */\n      dup3\n        /* \"BlockFundProject\":215:243  new Project(msg.sender, min) */\n      mload(0x40)\n      tag_21\n      swap1\n      tag_22\n      jump\t// in\n    tag_21:\n      dup1\n      dup4\n      0xffffffffffffffffffffffffffffffffffffffff\n      and\n      dup2\n      mstore\n      0x20\n      add\n      dup3\n      dup2\n      mstore\n      0x20\n      add\n      swap3\n      pop\n      pop\n      pop\n      mload(0x40)\n      dup1\n      swap2\n      sub\n      swap1\n      0x00\n      create\n      dup1\n      iszero\n      dup1\n      iszero\n      tag_23\n      jumpi\n      returndatasize\n      0x00\n      dup1\n      returndatacopy\n      revert(0x00, returndatasize)\n    tag_23:\n      pop\n        /* \"BlockFundProject\":194:243  Project newProject = new Project(msg.sender, min) */\n      swap1\n      pop\n        /* \"BlockFundProject\":253:272  address newProjAddr */\n      0x00\n        /* \"BlockFundProject\":283:293  newProject */\n      dup2\n        /* \"BlockFundProject\":253:294  address newProjAddr = address(newProject) */\n      swap1\n      pop\n        /* \"BlockFundProject\":304:320  deployedProjects */\n      0x00\n        /* \"BlockFundProject\":326:337  newProjAddr */\n      dup2\n        /* \"BlockFundProject\":304:338  deployedProjects.push(newProjAddr) */\n      swap1\n      dup1\n      0x01\n      dup2\n      sload\n      add\n      dup1\n      dup3\n      sstore\n      dup1\n      swap2\n      pop\n      pop\n      0x01\n      swap1\n      sub\n      swap1\n      0x00\n      mstore\n      keccak256(0x00, 0x20)\n      add\n      0x00\n      swap1\n      swap2\n      swap1\n      swap2\n      swap1\n      swap2\n      0x0100\n      exp\n      dup2\n      sload\n      dup2\n      0xffffffffffffffffffffffffffffffffffffffff\n      mul\n      not\n      and\n      swap1\n      dup4\n      0xffffffffffffffffffffffffffffffffffffffff\n      and\n      mul\n      or\n      swap1\n      sstore\n      pop\n        /* \"BlockFundProject\":144:345  function createProject(uint min) public {... */\n      pop\n      pop\n      pop\n      jump\t// out\n        /* \"BlockFundProject\":100:133  address[] public deployedProjects */\n    tag_16:\n      0x00\n      dup2\n      dup2\n      sload\n      dup2\n      lt\n      tag_25\n      jumpi\n      0x00\n      dup1\n      revert\n    tag_25:\n      swap1\n      0x00\n      mstore\n      keccak256(0x00, 0x20)\n      add\n      0x00\n      swap2\n      pop\n      sload\n      swap1\n      0x0100\n      exp\n      swap1\n      div\n      0xffffffffffffffffffffffffffffffffffffffff\n      and\n      dup2\n      jump\t// out\n    tag_22:\n      dataSize(sub_0)\n      dup1\n      dataOffset(sub_0)\n      dup4\n      codecopy\n      add\n      swap1\n      jump\t// out\n    stop\n\n    sub_0: assembly {\n            /* \"BlockFundProject\":471:2900  contract Project {... */\n          mstore(0x40, 0x80)\n            /* \"BlockFundProject\":1109:1219  constructor(address manager, uint min) {... */\n          callvalue\n          dup1\n          iszero\n          tag_1\n          jumpi\n          0x00\n          dup1\n          revert\n        tag_1:\n          pop\n          mload(0x40)\n          sub(codesize, bytecodeSize)\n          dup1\n          bytecodeSize\n          dup4\n          codecopy\n          dup2\n          dup2\n          add\n          0x40\n          mstore\n          0x40\n          dup2\n          lt\n          iszero\n          tag_2\n          jumpi\n          0x00\n          dup1\n          revert\n        tag_2:\n          dup2\n          add\n          swap1\n          dup1\n          dup1\n          mload\n          swap1\n          0x20\n          add\n          swap1\n          swap3\n          swap2\n          swap1\n          dup1\n          mload\n          swap1\n          0x20\n          add\n          swap1\n          swap3\n          swap2\n          swap1\n          pop\n          pop\n          pop\n            /* \"BlockFundProject\":1177:1184  manager */\n          dup2\n            /* \"BlockFundProject\":1158:1174  contract_manager */\n          0x03\n          0x00\n            /* \"BlockFundProject\":1158:1184  contract_manager = manager */\n          0x0100\n          exp\n          dup2\n          sload\n          dup2\n          0xffffffffffffffffffffffffffffffffffffffff\n          mul\n          not\n          and\n          swap1\n          dup4\n          0xffffffffffffffffffffffffffffffffffffffff\n          and\n          mul\n          or\n          swap1\n          sstore\n          pop\n            /* \"BlockFundProject\":1209:1212  min */\n          dup1\n            /* \"BlockFundProject\":1194:1206  min_donation */\n          0x04\n            /* \"BlockFundProject\":1194:1212  min_donation = min */\n          dup2\n          swap1\n          sstore\n          pop\n            /* \"BlockFundProject\":1109:1219  constructor(address manager, uint min) {... */\n          pop\n          pop\n            /* \"BlockFundProject\":471:2900  contract Project {... */\n          dataSize(sub_0)\n          dup1\n          dataOffset(sub_0)\n          0x00\n          codecopy\n          0x00\n          return\n        stop\n\n        sub_0: assembly {\n                /* \"BlockFundProject\":471:2900  contract Project {... */\n              mstore(0x40, 0x80)\n              jumpi(tag_1, lt(calldatasize, 0x04))\n              shr(0xe0, calldataload(0x00))\n              dup1\n              0xa13baa64\n              gt\n              tag_15\n              jumpi\n              dup1\n              0xd7d1bbdb\n              gt\n              tag_16\n              jumpi\n              dup1\n              0xd7d1bbdb\n              eq\n              tag_11\n              jumpi\n              dup1\n              0xe6c18374\n              eq\n              tag_12\n              jumpi\n              dup1\n              0xed88c68e\n              eq\n              tag_13\n              jumpi\n              dup1\n              0xf3ebe294\n              eq\n              tag_14\n              jumpi\n              jump(tag_1)\n            tag_16:\n              dup1\n              0xa13baa64\n              eq\n              tag_8\n              jumpi\n              dup1\n              0xa5bf254a\n              eq\n              tag_9\n              jumpi\n              dup1\n              0xaa332ac8\n              eq\n              tag_10\n              jumpi\n              jump(tag_1)\n            tag_15:\n              dup1\n              0x05261aea\n              eq\n              tag_2\n              jumpi\n              dup1\n              0x26611b5a\n              eq\n              tag_3\n              jumpi\n              dup1\n              0x2accd144\n              eq\n              tag_4\n              jumpi\n              dup1\n              0x3410452a\n              eq\n              tag_5\n              jumpi\n              dup1\n              0x50e69062\n              eq\n              tag_6\n              jumpi\n              dup1\n              0x81d12c58\n              eq\n              tag_7\n              jumpi\n            tag_1:\n              0x00\n              dup1\n              revert\n                /* \"BlockFundProject\":2231:2536  function finalize(uint index) public payable {... */\n            tag_2:\n              tag_17\n              0x04\n              dup1\n              calldatasize\n              sub\n              0x20\n              dup2\n              lt\n              iszero\n              tag_18\n              jumpi\n              0x00\n              dup1\n              revert\n            tag_18:\n              dup2\n              add\n              swap1\n              dup1\n              dup1\n              calldataload\n              swap1\n              0x20\n              add\n              swap1\n              swap3\n              swap2\n              swap1\n              pop\n              pop\n              pop\n              tag_19\n              jump\t// in\n            tag_17:\n              stop\n                /* \"BlockFundProject\":756:782  uint public total_requests */\n            tag_3:\n              callvalue\n              dup1\n              iszero\n              tag_20\n              jumpi\n              0x00\n              dup1\n              revert\n            tag_20:\n              pop\n              tag_21\n              tag_22\n              jump\t// in\n            tag_21:\n              mload(0x40)\n              dup1\n              dup3\n              dup2\n              mstore\n              0x20\n              add\n              swap2\n              pop\n              pop\n              mload(0x40)\n              dup1\n              swap2\n              sub\n              swap1\n              return\n                /* \"BlockFundProject\":2542:2801  function projectDetails() public view returns (uint, uint, uint, uint, address) {... */\n            tag_4:\n              callvalue\n              dup1\n              iszero\n              tag_23\n              jumpi\n              0x00\n              dup1\n              revert\n            tag_23:\n              pop\n              tag_24\n              tag_25\n              jump\t// in\n            tag_24:\n              mload(0x40)\n              dup1\n              dup7\n              dup2\n              mstore\n              0x20\n              add\n              dup6\n              dup2\n              mstore\n              0x20\n              add\n              dup5\n              dup2\n              mstore\n              0x20\n              add\n              dup4\n              dup2\n              mstore\n              0x20\n              add\n              dup3\n              0xffffffffffffffffffffffffffffffffffffffff\n              and\n              dup2\n              mstore\n              0x20\n              add\n              swap6\n              pop\n              pop\n              pop\n              pop\n              pop\n              pop\n              mload(0x40)\n              dup1\n              swap2\n              sub\n              swap1\n              return\n                /* \"BlockFundProject\":2807:2898  function getRequestsCount() public view returns (uint) {... */\n            tag_5:\n              callvalue\n              dup1\n              iszero\n              tag_26\n              jumpi\n              0x00\n              dup1\n              revert\n            tag_26:\n              pop\n              tag_27\n              tag_28\n              jump\t// in\n            tag_27:\n              mload(0x40)\n              dup1\n              dup3\n              dup2\n              mstore\n              0x20\n              add\n              swap2\n              pop\n              pop\n              mload(0x40)\n              dup1\n              swap2\n              sub\n              swap1\n              return\n                /* \"BlockFundProject\":816:847  address public contract_manager */\n            tag_6:\n              callvalue\n              dup1\n              iszero\n              tag_29\n              jumpi\n              0x00\n              dup1\n              revert\n            tag_29:\n              pop\n              tag_30\n              tag_31\n              jump\t// in\n            tag_30:\n              mload(0x40)\n              dup1\n              dup3\n              0xffffffffffffffffffffffffffffffffffffffff\n              and\n              dup2\n              mstore\n              0x20\n              add\n              swap2\n              pop\n              pop\n              mload(0x40)\n              dup1\n              swap2\n              sub\n              swap1\n              return\n                /* \"BlockFundProject\":709:750  mapping (uint => Request) public requests */\n            tag_7:\n              callvalue\n              dup1\n              iszero\n              tag_32\n              jumpi\n              0x00\n              dup1\n              revert\n            tag_32:\n              pop\n              tag_33\n              0x04\n              dup1\n              calldatasize\n              sub\n              0x20\n              dup2\n              lt\n              iszero\n              tag_34\n              jumpi\n              0x00\n              dup1\n              revert\n            tag_34:\n              dup2\n              add\n              swap1\n              dup1\n              dup1\n              calldataload\n              swap1\n              0x20\n              add\n              swap1\n              swap3\n              swap2\n              swap1\n              pop\n              pop\n              pop\n              tag_35\n              jump\t// in\n            tag_33:\n              mload(0x40)\n              dup1\n              dup7\n              0xffffffffffffffffffffffffffffffffffffffff\n              and\n              dup2\n              mstore\n              0x20\n              add\n              dup1\n              0x20\n              add\n              dup6\n              dup2\n              mstore\n              0x20\n              add\n              dup5\n              iszero\n              iszero\n              dup2\n              mstore\n              0x20\n              add\n              dup4\n              dup2\n              mstore\n              0x20\n              add\n              dup3\n              dup2\n              sub\n              dup3\n              mstore\n              dup7\n              dup2\n              dup2\n              mload\n              dup2\n              mstore\n              0x20\n              add\n              swap2\n              pop\n              dup1\n              mload\n              swap1\n              0x20\n              add\n              swap1\n              dup1\n              dup4\n              dup4\n              0x00\n            tag_36:\n              dup4\n              dup2\n              lt\n              iszero\n              tag_38\n              jumpi\n              dup1\n              dup3\n              add\n              mload\n              dup2\n              dup5\n              add\n              mstore\n              0x20\n              dup2\n              add\n              swap1\n              pop\n              jump(tag_36)\n            tag_38:\n              pop\n              pop\n              pop\n              pop\n              swap1\n              pop\n              swap1\n              dup2\n              add\n              swap1\n              0x1f\n              and\n              dup1\n              iszero\n              tag_39\n              jumpi\n              dup1\n              dup3\n              sub\n              dup1\n              mload\n              0x01\n              dup4\n              0x20\n              sub\n              0x0100\n              exp\n              sub\n              not\n              and\n              dup2\n              mstore\n              0x20\n              add\n              swap2\n              pop\n            tag_39:\n              pop\n              swap7\n              pop\n              pop\n              pop\n              pop\n              pop\n              pop\n              pop\n              mload(0x40)\n              dup1\n              swap2\n              sub\n              swap1\n              return\n                /* \"BlockFundProject\":944:993  mapping (address => bool) public approving_donors */\n            tag_8:\n              callvalue\n              dup1\n              iszero\n              tag_40\n              jumpi\n              0x00\n              dup1\n              revert\n            tag_40:\n              pop\n              tag_41\n              0x04\n              dup1\n              calldatasize\n              sub\n              0x20\n              dup2\n              lt\n              iszero\n              tag_42\n              jumpi\n              0x00\n              dup1\n              revert\n            tag_42:\n              dup2\n              add\n              swap1\n              dup1\n              dup1\n              calldataload\n              0xffffffffffffffffffffffffffffffffffffffff\n              and\n              swap1\n              0x20\n              add\n              swap1\n              swap3\n              swap2\n              swap1\n              pop\n              pop\n              pop\n              tag_43\n              jump\t// in\n            tag_41:\n              mload(0x40)\n              dup1\n              dup3\n              iszero\n              iszero\n              dup2\n              mstore\n              0x20\n              add\n              swap2\n              pop\n              pop\n              mload(0x40)\n              dup1\n              swap2\n              sub\n              swap1\n              return\n                /* \"BlockFundProject\":2041:2221  function finalizeTest(uint index) public view returns (address) {... */\n            tag_9:\n              callvalue\n              dup1\n              iszero\n              tag_44\n              jumpi\n              0x00\n              dup1\n              revert\n            tag_44:\n              pop\n              tag_45\n              0x04\n              dup1\n              calldatasize\n              sub\n              0x20\n              dup2\n              lt\n              iszero\n              tag_46\n              jumpi\n              0x00\n              dup1\n              revert\n            tag_46:\n              dup2\n              add\n              swap1\n              dup1\n              dup1\n              calldataload\n              swap1\n              0x20\n              add\n              swap1\n              swap3\n              swap2\n              swap1\n              pop\n              pop\n              pop\n              tag_47\n              jump\t// in\n            tag_45:\n              mload(0x40)\n              dup1\n              dup3\n              0xffffffffffffffffffffffffffffffffffffffff\n              and\n              dup2\n              mstore\n              0x20\n              add\n              swap2\n              pop\n              pop\n              mload(0x40)\n              dup1\n              swap2\n              sub\n              swap1\n              return\n                /* \"BlockFundProject\":914:938  uint public appr_counter */\n            tag_10:\n              callvalue\n              dup1\n              iszero\n              tag_48\n              jumpi\n              0x00\n              dup1\n              revert\n            tag_48:\n              pop\n              tag_49\n              tag_50\n              jump\t// in\n            tag_49:\n              mload(0x40)\n              dup1\n              dup3\n              dup2\n              mstore\n              0x20\n              add\n              swap2\n              pop\n              pop\n              mload(0x40)\n              dup1\n              swap2\n              sub\n              swap1\n              return\n                /* \"BlockFundProject\":1744:2035  function approveRequest(uint index) public {... */\n            tag_11:\n              callvalue\n              dup1\n              iszero\n              tag_51\n              jumpi\n              0x00\n              dup1\n              revert\n            tag_51:\n              pop\n              tag_52\n              0x04\n              dup1\n              calldatasize\n              sub\n              0x20\n              dup2\n              lt\n              iszero\n              tag_53\n              jumpi\n              0x00\n              dup1\n              revert\n            tag_53:\n              dup2\n              add\n              swap1\n              dup1\n              dup1\n              calldataload\n              swap1\n              0x20\n              add\n              swap1\n              swap3\n              swap2\n              swap1\n              pop\n              pop\n              pop\n              tag_54\n              jump\t// in\n            tag_52:\n              stop\n                /* \"BlockFundProject\":853:877  uint public min_donation */\n            tag_12:\n              callvalue\n              dup1\n              iszero\n              tag_55\n              jumpi\n              0x00\n              dup1\n              revert\n            tag_55:\n              pop\n              tag_56\n              tag_57\n              jump\t// in\n            tag_56:\n              mload(0x40)\n              dup1\n              dup3\n              dup2\n              mstore\n              0x20\n              add\n              swap2\n              pop\n              pop\n              mload(0x40)\n              dup1\n              swap2\n              sub\n              swap1\n              return\n                /* \"BlockFundProject\":1229:1381  function donate() public payable {... */\n            tag_13:\n              tag_58\n              tag_59\n              jump\t// in\n            tag_58:\n              stop\n                /* \"BlockFundProject\":1391:1734  function createReq(address receiver, string memory desc, uint val) public restrict_manager {... */\n            tag_14:\n              callvalue\n              dup1\n              iszero\n              tag_60\n              jumpi\n              0x00\n              dup1\n              revert\n            tag_60:\n              pop\n              tag_61\n              0x04\n              dup1\n              calldatasize\n              sub\n              0x60\n              dup2\n              lt\n              iszero\n              tag_62\n              jumpi\n              0x00\n              dup1\n              revert\n            tag_62:\n              dup2\n              add\n              swap1\n              dup1\n              dup1\n              calldataload\n              0xffffffffffffffffffffffffffffffffffffffff\n              and\n              swap1\n              0x20\n              add\n              swap1\n              swap3\n              swap2\n              swap1\n              dup1\n              calldataload\n              swap1\n              0x20\n              add\n              swap1\n              0x0100000000\n              dup2\n              gt\n              iszero\n              tag_63\n              jumpi\n              0x00\n              dup1\n              revert\n            tag_63:\n              dup3\n              add\n              dup4\n              0x20\n              dup3\n              add\n              gt\n              iszero\n              tag_64\n              jumpi\n              0x00\n              dup1\n              revert\n            tag_64:\n              dup1\n              calldataload\n              swap1\n              0x20\n              add\n              swap2\n              dup5\n              0x01\n              dup4\n              mul\n              dup5\n              add\n              gt\n              0x0100000000\n              dup4\n              gt\n              or\n              iszero\n              tag_65\n              jumpi\n              0x00\n              dup1\n              revert\n            tag_65:\n              swap2\n              swap1\n              dup1\n              dup1\n              0x1f\n              add\n              0x20\n              dup1\n              swap2\n              div\n              mul\n              0x20\n              add\n              mload(0x40)\n              swap1\n              dup2\n              add\n              0x40\n              mstore\n              dup1\n              swap4\n              swap3\n              swap2\n              swap1\n              dup2\n              dup2\n              mstore\n              0x20\n              add\n              dup4\n              dup4\n              dup1\n              dup3\n              dup5\n              calldatacopy\n              0x00\n              dup2\n              dup5\n              add\n              mstore\n              not(0x1f)\n              0x1f\n              dup3\n              add\n              and\n              swap1\n              pop\n              dup1\n              dup4\n              add\n              swap3\n              pop\n              pop\n              pop\n              pop\n              pop\n              pop\n              pop\n              swap2\n              swap3\n              swap2\n              swap3\n              swap1\n              dup1\n              calldataload\n              swap1\n              0x20\n              add\n              swap1\n              swap3\n              swap2\n              swap1\n              pop\n              pop\n              pop\n              tag_66\n              jump\t// in\n            tag_61:\n              stop\n                /* \"BlockFundProject\":2231:2536  function finalize(uint index) public payable {... */\n            tag_19:\n                /* \"BlockFundProject\":2286:2309  Request storage request */\n              0x00\n                /* \"BlockFundProject\":2312:2320  requests */\n              dup1\n                /* \"BlockFundProject\":2312:2327  requests[index] */\n              0x00\n                /* \"BlockFundProject\":2321:2326  index */\n              dup4\n                /* \"BlockFundProject\":2312:2327  requests[index] */\n              dup2\n              mstore\n              0x20\n              add\n              swap1\n              dup2\n              mstore\n              0x20\n              add\n              0x00\n              keccak256\n                /* \"BlockFundProject\":2286:2327  Request storage request = requests[index] */\n              swap1\n              pop\n                /* \"BlockFundProject\":2391:2392  2 */\n              0x02\n                /* \"BlockFundProject\":2378:2390  appr_counter */\n              sload(0x05)\n                /* \"BlockFundProject\":2378:2392  appr_counter/2 */\n              dup2\n              tag_68\n              jumpi\n              invalid\n            tag_68:\n              div\n                /* \"BlockFundProject\":2354:2361  request */\n              dup2\n                /* \"BlockFundProject\":2354:2374  request.donorApprCnt */\n              0x04\n              add\n              sload\n                /* \"BlockFundProject\":2354:2393  request.donorApprCnt > (appr_counter/2) */\n              gt\n                /* \"BlockFundProject\":2346:2394  require(request.donorApprCnt > (appr_counter/2)) */\n              tag_69\n              jumpi\n              0x00\n              dup1\n              revert\n            tag_69:\n                /* \"BlockFundProject\":2413:2420  request */\n              dup1\n                /* \"BlockFundProject\":2413:2429  request.complete */\n              0x03\n              add\n              0x00\n              swap1\n              sload\n              swap1\n              0x0100\n              exp\n              swap1\n              div\n              0xff\n              and\n                /* \"BlockFundProject\":2412:2429  !request.complete */\n              iszero\n                /* \"BlockFundProject\":2404:2430  require(!request.complete) */\n              tag_70\n              jumpi\n              0x00\n              dup1\n              revert\n            tag_70:\n                /* \"BlockFundProject\":2457:2464  request */\n              dup1\n                /* \"BlockFundProject\":2457:2473  request.receiver */\n              0x00\n              add\n              0x00\n              swap1\n              sload\n              swap1\n              0x0100\n              exp\n              swap1\n              div\n              0xffffffffffffffffffffffffffffffffffffffff\n              and\n                /* \"BlockFundProject\":2449:2483  payable(request.receiver).transfer */\n              0xffffffffffffffffffffffffffffffffffffffff\n              and\n                /* \"BlockFundProject\":2449:2496  payable(request.receiver).transfer(request.val) */\n              0x08fc\n                /* \"BlockFundProject\":2484:2491  request */\n              dup3\n                /* \"BlockFundProject\":2484:2495  request.val */\n              0x02\n              add\n              sload\n                /* \"BlockFundProject\":2449:2496  payable(request.receiver).transfer(request.val) */\n              swap1\n              dup2\n              iszero\n              mul\n              swap1\n              mload(0x40)\n              0x00\n              mload(0x40)\n              dup1\n              dup4\n              sub\n              dup2\n              dup6\n              dup9\n              dup9\n              call\n              swap4\n              pop\n              pop\n              pop\n              pop\n              iszero\n              dup1\n              iszero\n              tag_72\n              jumpi\n              returndatasize\n              0x00\n              dup1\n              returndatacopy\n              revert(0x00, returndatasize)\n            tag_72:\n              pop\n                /* \"BlockFundProject\":2525:2529  true */\n              0x01\n                /* \"BlockFundProject\":2506:2513  request */\n              dup2\n                /* \"BlockFundProject\":2506:2522  request.complete */\n              0x03\n              add\n              0x00\n                /* \"BlockFundProject\":2506:2529  request.complete = true */\n              0x0100\n              exp\n              dup2\n              sload\n              dup2\n              0xff\n              mul\n              not\n              and\n              swap1\n              dup4\n              iszero\n              iszero\n              mul\n              or\n              swap1\n              sstore\n              pop\n                /* \"BlockFundProject\":2231:2536  function finalize(uint index) public payable {... */\n              pop\n              pop\n              jump\t// out\n                /* \"BlockFundProject\":756:782  uint public total_requests */\n            tag_22:\n              sload(0x01)\n              dup2\n              jump\t// out\n                /* \"BlockFundProject\":2542:2801  function projectDetails() public view returns (uint, uint, uint, uint, address) {... */\n            tag_25:\n                /* \"BlockFundProject\":2589:2593  uint */\n              0x00\n                /* \"BlockFundProject\":2595:2599  uint */\n              dup1\n                /* \"BlockFundProject\":2601:2605  uint */\n              0x00\n                /* \"BlockFundProject\":2607:2611  uint */\n              dup1\n                /* \"BlockFundProject\":2613:2620  address */\n              0x00\n                /* \"BlockFundProject\":2653:2665  min_donation */\n              sload(0x04)\n                /* \"BlockFundProject\":2679:2700  address(this).balance */\n              selfbalance\n                /* \"BlockFundProject\":2714:2728  total_requests */\n              sload(0x01)\n                /* \"BlockFundProject\":2742:2754  appr_counter */\n              sload(0x05)\n                /* \"BlockFundProject\":2768:2784  contract_manager */\n              0x03\n              0x00\n              swap1\n              sload\n              swap1\n              0x0100\n              exp\n              swap1\n              div\n              0xffffffffffffffffffffffffffffffffffffffff\n              and\n                /* \"BlockFundProject\":2632:2794  return (... */\n              swap5\n              pop\n              swap5\n              pop\n              swap5\n              pop\n              swap5\n              pop\n              swap5\n              pop\n                /* \"BlockFundProject\":2542:2801  function projectDetails() public view returns (uint, uint, uint, uint, address) {... */\n              swap1\n              swap2\n              swap3\n              swap4\n              swap5\n              jump\t// out\n                /* \"BlockFundProject\":2807:2898  function getRequestsCount() public view returns (uint) {... */\n            tag_28:\n                /* \"BlockFundProject\":2856:2860  uint */\n              0x00\n                /* \"BlockFundProject\":2879:2891  num_requests */\n              sload(0x02)\n                /* \"BlockFundProject\":2872:2891  return num_requests */\n              swap1\n              pop\n                /* \"BlockFundProject\":2807:2898  function getRequestsCount() public view returns (uint) {... */\n              swap1\n              jump\t// out\n                /* \"BlockFundProject\":816:847  address public contract_manager */\n            tag_31:\n              0x03\n              0x00\n              swap1\n              sload\n              swap1\n              0x0100\n              exp\n              swap1\n              div\n              0xffffffffffffffffffffffffffffffffffffffff\n              and\n              dup2\n              jump\t// out\n                /* \"BlockFundProject\":709:750  mapping (uint => Request) public requests */\n            tag_35:\n              mstore(0x20, 0x00)\n              dup1\n              0x00\n              mstore\n              keccak256(0x00, 0x40)\n              0x00\n              swap2\n              pop\n              swap1\n              pop\n              dup1\n              0x00\n              add\n              0x00\n              swap1\n              sload\n              swap1\n              0x0100\n              exp\n              swap1\n              div\n              0xffffffffffffffffffffffffffffffffffffffff\n              and\n              swap1\n              dup1\n              0x01\n              add\n              dup1\n              sload\n              0x01\n              dup2\n              0x01\n              and\n              iszero\n              0x0100\n              mul\n              sub\n              and\n              0x02\n              swap1\n              div\n              dup1\n              0x1f\n              add\n              0x20\n              dup1\n              swap2\n              div\n              mul\n              0x20\n              add\n              mload(0x40)\n              swap1\n              dup2\n              add\n              0x40\n              mstore\n              dup1\n              swap3\n              swap2\n              swap1\n              dup2\n              dup2\n              mstore\n              0x20\n              add\n              dup3\n              dup1\n              sload\n              0x01\n              dup2\n              0x01\n              and\n              iszero\n              0x0100\n              mul\n              sub\n              and\n              0x02\n              swap1\n              div\n              dup1\n              iszero\n              tag_75\n              jumpi\n              dup1\n              0x1f\n              lt\n              tag_76\n              jumpi\n              0x0100\n              dup1\n              dup4\n              sload\n              div\n              mul\n              dup4\n              mstore\n              swap2\n              0x20\n              add\n              swap2\n              jump(tag_75)\n            tag_76:\n              dup3\n              add\n              swap2\n              swap1\n              0x00\n              mstore\n              keccak256(0x00, 0x20)\n              swap1\n            tag_77:\n              dup2\n              sload\n              dup2\n              mstore\n              swap1\n              0x01\n              add\n              swap1\n              0x20\n              add\n              dup1\n              dup4\n              gt\n              tag_77\n              jumpi\n              dup3\n              swap1\n              sub\n              0x1f\n              and\n              dup3\n              add\n              swap2\n            tag_75:\n              pop\n              pop\n              pop\n              pop\n              pop\n              swap1\n              dup1\n              0x02\n              add\n              sload\n              swap1\n              dup1\n              0x03\n              add\n              0x00\n              swap1\n              sload\n              swap1\n              0x0100\n              exp\n              swap1\n              div\n              0xff\n              and\n              swap1\n              dup1\n              0x04\n              add\n              sload\n              swap1\n              pop\n              dup6\n              jump\t// out\n                /* \"BlockFundProject\":944:993  mapping (address => bool) public approving_donors */\n            tag_43:\n              mstore(0x20, 0x06)\n              dup1\n              0x00\n              mstore\n              keccak256(0x00, 0x40)\n              0x00\n              swap2\n              pop\n              sload\n              swap1\n              0x0100\n              exp\n              swap1\n              div\n              0xff\n              and\n              dup2\n              jump\t// out\n                /* \"BlockFundProject\":2041:2221  function finalizeTest(uint index) public view returns (address) {... */\n            tag_47:\n                /* \"BlockFundProject\":2096:2103  address */\n              0x00\n                /* \"BlockFundProject\":2115:2138  Request storage request */\n              dup1\n                /* \"BlockFundProject\":2141:2149  requests */\n              0x00\n                /* \"BlockFundProject\":2141:2156  requests[index] */\n              dup1\n                /* \"BlockFundProject\":2150:2155  index */\n              dup5\n                /* \"BlockFundProject\":2141:2156  requests[index] */\n              dup2\n              mstore\n              0x20\n              add\n              swap1\n              dup2\n              mstore\n              0x20\n              add\n              0x00\n              keccak256\n                /* \"BlockFundProject\":2115:2156  Request storage request = requests[index] */\n              swap1\n              pop\n                /* \"BlockFundProject\":2188:2195  request */\n              dup1\n                /* \"BlockFundProject\":2188:2204  request.receiver */\n              0x00\n              add\n              0x00\n              swap1\n              sload\n              swap1\n              0x0100\n              exp\n              swap1\n              div\n              0xffffffffffffffffffffffffffffffffffffffff\n              and\n                /* \"BlockFundProject\":2167:2214  return (... */\n              swap2\n              pop\n              pop\n                /* \"BlockFundProject\":2041:2221  function finalizeTest(uint index) public view returns (address) {... */\n              swap2\n              swap1\n              pop\n              jump\t// out\n                /* \"BlockFundProject\":914:938  uint public appr_counter */\n            tag_50:\n              sload(0x05)\n              dup2\n              jump\t// out\n                /* \"BlockFundProject\":1744:2035  function approveRequest(uint index) public {... */\n            tag_54:\n                /* \"BlockFundProject\":1797:1820  Request storage request */\n              0x00\n                /* \"BlockFundProject\":1823:1831  requests */\n              dup1\n                /* \"BlockFundProject\":1823:1838  requests[index] */\n              0x00\n                /* \"BlockFundProject\":1832:1837  index */\n              dup4\n                /* \"BlockFundProject\":1823:1838  requests[index] */\n              dup2\n              mstore\n              0x20\n              add\n              swap1\n              dup2\n              mstore\n              0x20\n              add\n              0x00\n              keccak256\n                /* \"BlockFundProject\":1797:1838  Request storage request = requests[index] */\n              swap1\n              pop\n                /* \"BlockFundProject\":1865:1881  approving_donors */\n              0x06\n                /* \"BlockFundProject\":1865:1893  approving_donors[msg.sender] */\n              0x00\n                /* \"BlockFundProject\":1882:1892  msg.sender */\n              caller\n                /* \"BlockFundProject\":1865:1893  approving_donors[msg.sender] */\n              0xffffffffffffffffffffffffffffffffffffffff\n              and\n              0xffffffffffffffffffffffffffffffffffffffff\n              and\n              dup2\n              mstore\n              0x20\n              add\n              swap1\n              dup2\n              mstore\n              0x20\n              add\n              0x00\n              keccak256\n              0x00\n              swap1\n              sload\n              swap1\n              0x0100\n              exp\n              swap1\n              div\n              0xff\n              and\n                /* \"BlockFundProject\":1857:1894  require(approving_donors[msg.sender]) */\n              tag_80\n              jumpi\n              0x00\n              dup1\n              revert\n            tag_80:\n                /* \"BlockFundProject\":1913:1920  request */\n              dup1\n                /* \"BlockFundProject\":1913:1929  request.approved */\n              0x05\n              add\n                /* \"BlockFundProject\":1913:1941  request.approved[msg.sender] */\n              0x00\n                /* \"BlockFundProject\":1930:1940  msg.sender */\n              caller\n                /* \"BlockFundProject\":1913:1941  request.approved[msg.sender] */\n              0xffffffffffffffffffffffffffffffffffffffff\n              and\n              0xffffffffffffffffffffffffffffffffffffffff\n              and\n              dup2\n              mstore\n              0x20\n              add\n              swap1\n              dup2\n              mstore\n              0x20\n              add\n              0x00\n              keccak256\n              0x00\n              swap1\n              sload\n              swap1\n              0x0100\n              exp\n              swap1\n              div\n              0xff\n              and\n                /* \"BlockFundProject\":1912:1941  !request.approved[msg.sender] */\n              iszero\n                /* \"BlockFundProject\":1904:1942  require(!request.approved[msg.sender]) */\n              tag_81\n              jumpi\n              0x00\n              dup1\n              revert\n            tag_81:\n                /* \"BlockFundProject\":1992:1996  true */\n              0x01\n                /* \"BlockFundProject\":1961:1968  request */\n              dup2\n                /* \"BlockFundProject\":1961:1977  request.approved */\n              0x05\n              add\n                /* \"BlockFundProject\":1961:1989  request.approved[msg.sender] */\n              0x00\n                /* \"BlockFundProject\":1978:1988  msg.sender */\n              caller\n                /* \"BlockFundProject\":1961:1989  request.approved[msg.sender] */\n              0xffffffffffffffffffffffffffffffffffffffff\n              and\n              0xffffffffffffffffffffffffffffffffffffffff\n              and\n              dup2\n              mstore\n              0x20\n              add\n              swap1\n              dup2\n              mstore\n              0x20\n              add\n              0x00\n              keccak256\n              0x00\n                /* \"BlockFundProject\":1961:1996  request.approved[msg.sender] = true */\n              0x0100\n              exp\n              dup2\n              sload\n              dup2\n              0xff\n              mul\n              not\n              and\n              swap1\n              dup4\n              iszero\n              iszero\n              mul\n              or\n              swap1\n              sstore\n              pop\n                /* \"BlockFundProject\":2006:2013  request */\n              dup1\n                /* \"BlockFundProject\":2006:2026  request.donorApprCnt */\n              0x04\n              add\n              0x00\n                /* \"BlockFundProject\":2006:2028  request.donorApprCnt++ */\n              dup2\n              sload\n              dup1\n              swap3\n              swap2\n              swap1\n              0x01\n              add\n              swap2\n              swap1\n              pop\n              sstore\n              pop\n                /* \"BlockFundProject\":1744:2035  function approveRequest(uint index) public {... */\n              pop\n              pop\n              jump\t// out\n                /* \"BlockFundProject\":853:877  uint public min_donation */\n            tag_57:\n              sload(0x04)\n              dup2\n              jump\t// out\n                /* \"BlockFundProject\":1229:1381  function donate() public payable {... */\n            tag_59:\n                /* \"BlockFundProject\":1292:1304  min_donation */\n              sload(0x04)\n                /* \"BlockFundProject\":1280:1289  msg.value */\n              callvalue\n                /* \"BlockFundProject\":1280:1304  msg.value > min_donation */\n              gt\n                /* \"BlockFundProject\":1272:1305  require(msg.value > min_donation) */\n              tag_83\n              jumpi\n              0x00\n              dup1\n              revert\n            tag_83:\n                /* \"BlockFundProject\":1346:1350  true */\n              0x01\n                /* \"BlockFundProject\":1315:1331  approving_donors */\n              0x06\n                /* \"BlockFundProject\":1315:1343  approving_donors[msg.sender] */\n              0x00\n                /* \"BlockFundProject\":1332:1342  msg.sender */\n              caller\n                /* \"BlockFundProject\":1315:1343  approving_donors[msg.sender] */\n              0xffffffffffffffffffffffffffffffffffffffff\n              and\n              0xffffffffffffffffffffffffffffffffffffffff\n              and\n              dup2\n              mstore\n              0x20\n              add\n              swap1\n              dup2\n              mstore\n              0x20\n              add\n              0x00\n              keccak256\n              0x00\n                /* \"BlockFundProject\":1315:1350  approving_donors[msg.sender] = true */\n              0x0100\n              exp\n              dup2\n              sload\n              dup2\n              0xff\n              mul\n              not\n              and\n              swap1\n              dup4\n              iszero\n              iszero\n              mul\n              or\n              swap1\n              sstore\n              pop\n                /* \"BlockFundProject\":1360:1372  appr_counter */\n              0x05\n              0x00\n                /* \"BlockFundProject\":1360:1374  appr_counter++ */\n              dup2\n              sload\n              dup1\n              swap3\n              swap2\n              swap1\n              0x01\n              add\n              swap2\n              swap1\n              pop\n              sstore\n              pop\n                /* \"BlockFundProject\":1229:1381  function donate() public payable {... */\n              jump\t// out\n                /* \"BlockFundProject\":1391:1734  function createReq(address receiver, string memory desc, uint val) public restrict_manager {... */\n            tag_66:\n                /* \"BlockFundProject\":1064:1080  contract_manager */\n              0x03\n              0x00\n              swap1\n              sload\n              swap1\n              0x0100\n              exp\n              swap1\n              div\n              0xffffffffffffffffffffffffffffffffffffffff\n              and\n                /* \"BlockFundProject\":1050:1080  msg.sender == contract_manager */\n              0xffffffffffffffffffffffffffffffffffffffff\n              and\n                /* \"BlockFundProject\":1050:1060  msg.sender */\n              caller\n                /* \"BlockFundProject\":1050:1080  msg.sender == contract_manager */\n              0xffffffffffffffffffffffffffffffffffffffff\n              and\n              eq\n                /* \"BlockFundProject\":1042:1081  require(msg.sender == contract_manager) */\n              tag_85\n              jumpi\n              0x00\n              dup1\n              revert\n            tag_85:\n                /* \"BlockFundProject\":1492:1514  Request storage newReq */\n              0x00\n                /* \"BlockFundProject\":1517:1525  requests */\n              dup1\n                /* \"BlockFundProject\":1517:1541  requests[num_requests++] */\n              0x00\n                /* \"BlockFundProject\":1526:1538  num_requests */\n              0x02\n              0x00\n                /* \"BlockFundProject\":1526:1540  num_requests++ */\n              dup2\n              sload\n              dup1\n              swap3\n              swap2\n              swap1\n              0x01\n              add\n              swap2\n              swap1\n              pop\n              sstore\n                /* \"BlockFundProject\":1517:1541  requests[num_requests++] */\n              dup2\n              mstore\n              0x20\n              add\n              swap1\n              dup2\n              mstore\n              0x20\n              add\n              0x00\n              keccak256\n                /* \"BlockFundProject\":1492:1541  Request storage newReq = requests[num_requests++] */\n              swap1\n              pop\n                /* \"BlockFundProject\":1570:1578  receiver */\n              dup4\n                /* \"BlockFundProject\":1552:1558  newReq */\n              dup2\n                /* \"BlockFundProject\":1552:1567  newReq.receiver */\n              0x00\n              add\n              0x00\n                /* \"BlockFundProject\":1552:1578  newReq.receiver = receiver */\n              0x0100\n              exp\n              dup2\n              sload\n              dup2\n              0xffffffffffffffffffffffffffffffffffffffff\n              mul\n              not\n              and\n              swap1\n              dup4\n              0xffffffffffffffffffffffffffffffffffffffff\n              and\n              mul\n              or\n              swap1\n              sstore\n              pop\n                /* \"BlockFundProject\":1602:1606  desc */\n              dup3\n                /* \"BlockFundProject\":1588:1594  newReq */\n              dup2\n                /* \"BlockFundProject\":1588:1599  newReq.desc */\n              0x01\n              add\n                /* \"BlockFundProject\":1588:1606  newReq.desc = desc */\n              swap1\n              dup1\n              mload\n              swap1\n              0x20\n              add\n              swap1\n              tag_87\n              swap3\n              swap2\n              swap1\n              tag_88\n              jump\t// in\n            tag_87:\n              pop\n                /* \"BlockFundProject\":1629:1632  val */\n              dup2\n                /* \"BlockFundProject\":1616:1622  newReq */\n              dup2\n                /* \"BlockFundProject\":1616:1626  newReq.val */\n              0x02\n              add\n                /* \"BlockFundProject\":1616:1632  newReq.val = val */\n              dup2\n              swap1\n              sstore\n              pop\n                /* \"BlockFundProject\":1660:1665  false */\n              0x00\n                /* \"BlockFundProject\":1642:1648  newReq */\n              dup2\n                /* \"BlockFundProject\":1642:1657  newReq.complete */\n              0x03\n              add\n              0x00\n                /* \"BlockFundProject\":1642:1665  newReq.complete = false */\n              0x0100\n              exp\n              dup2\n              sload\n              dup2\n              0xff\n              mul\n              not\n              and\n              swap1\n              dup4\n              iszero\n              iszero\n              mul\n              or\n              swap1\n              sstore\n              pop\n                /* \"BlockFundProject\":1697:1698  0 */\n              0x00\n                /* \"BlockFundProject\":1675:1681  newReq */\n              dup2\n                /* \"BlockFundProject\":1675:1694  newReq.donorApprCnt */\n              0x04\n              add\n                /* \"BlockFundProject\":1675:1698  newReq.donorApprCnt = 0 */\n              dup2\n              swap1\n              sstore\n              pop\n                /* \"BlockFundProject\":1091:1092  _ */\n              pop\n                /* \"BlockFundProject\":1391:1734  function createReq(address receiver, string memory desc, uint val) public restrict_manager {... */\n              pop\n              pop\n              pop\n              jump\t// out\n            tag_88:\n              dup3\n              dup1\n              sload\n              0x01\n              dup2\n              0x01\n              and\n              iszero\n              0x0100\n              mul\n              sub\n              and\n              0x02\n              swap1\n              div\n              swap1\n              0x00\n              mstore\n              keccak256(0x00, 0x20)\n              swap1\n              0x1f\n              add\n              0x20\n              swap1\n              div\n              dup2\n              add\n              swap3\n              dup3\n              tag_90\n              jumpi\n              0x00\n              dup6\n              sstore\n              jump(tag_89)\n            tag_90:\n              dup3\n              0x1f\n              lt\n              tag_91\n              jumpi\n              dup1\n              mload\n              not(0xff)\n              and\n              dup4\n              dup1\n              add\n              or\n              dup6\n              sstore\n              jump(tag_89)\n            tag_91:\n              dup3\n              dup1\n              add\n              0x01\n              add\n              dup6\n              sstore\n              dup3\n              iszero\n              tag_89\n              jumpi\n              swap2\n              dup3\n              add\n            tag_92:\n              dup3\n              dup2\n              gt\n              iszero\n              tag_93\n              jumpi\n              dup3\n              mload\n              dup3\n              sstore\n              swap2\n              0x20\n              add\n              swap2\n              swap1\n              0x01\n              add\n              swap1\n              jump(tag_92)\n            tag_93:\n            tag_89:\n              pop\n              swap1\n              pop\n              tag_94\n              swap2\n              swap1\n              tag_95\n              jump\t// in\n            tag_94:\n              pop\n              swap1\n              jump\t// out\n            tag_95:\n            tag_96:\n              dup1\n              dup3\n              gt\n              iszero\n              tag_97\n              jumpi\n              0x00\n              dup2\n              0x00\n              swap1\n              sstore\n              pop\n              0x01\n              add\n              jump(tag_96)\n            tag_97:\n              pop\n              swap1\n              jump\t// out\n\n            auxdata: 0xa2646970667358221220b0903601ebf5d1cc9d4ffbd9b83d2d733c51c213fc3a5a22f3c4b0069cea922464736f6c63430007060033\n        }\n    }\n\n    auxdata: 0xa26469706673582212205f8aab214e5f4fe340076433a71fc379bd4b15c6152ccb3a66e56bb8164c7c3c64736f6c63430007060033\n}\n","bytecode":{"linkReferences":{},"object":"608060405234801561001057600080fd5b50610f38806100206000396000f3fe608060405234801561001057600080fd5b50600436106100415760003560e01c806377137b7514610046578063992034d7146100a55780639ec6deaf146100d3575b600080fd5b61004e61012b565b6040518080602001828103825283818151815260200191508051906020019060200280838360005b83811015610091578082015181840152602081019050610076565b505050509050019250505060405180910390f35b6100d1600480360360208110156100bb57600080fd5b81019080803590602001909291905050506101b9565b005b6100ff600480360360208110156100e957600080fd5b810190808035906020019092919050505061027c565b604051808273ffffffffffffffffffffffffffffffffffffffff16815260200191505060405180910390f35b606060008054806020026020016040519081016040528092919081815260200182805480156101af57602002820191906000526020600020905b8160009054906101000a900473ffffffffffffffffffffffffffffffffffffffff1673ffffffffffffffffffffffffffffffffffffffff1681526020019060010190808311610165575b5050505050905090565b600033826040516101c9906102bb565b808373ffffffffffffffffffffffffffffffffffffffff16815260200182815260200192505050604051809103906000f08015801561020c573d6000803e3d6000fd5b50905060008190506000819080600181540180825580915050600190039060005260206000200160009091909190916101000a81548173ffffffffffffffffffffffffffffffffffffffff021916908373ffffffffffffffffffffffffffffffffffffffff160217905550505050565b6000818154811061028c57600080fd5b906000526020600020016000915054906101000a900473ffffffffffffffffffffffffffffffffffffffff1681565b610c3a806102c98339019056fe608060405234801561001057600080fd5b50604051610c3a380380610c3a8339818101604052604081101561003357600080fd5b81019080805190602001909291908051906020019092919050505081600360006101000a81548173ffffffffffffffffffffffffffffffffffffffff021916908373ffffffffffffffffffffffffffffffffffffffff160217905550806004819055505050610b93806100a76000396000f3fe6080604052600436106100c25760003560e01c8063a13baa641161007f578063d7d1bbdb11610059578063d7d1bbdb146103c8578063e6c1837414610403578063ed88c68e1461042e578063f3ebe29414610438576100c2565b8063a13baa64146102d1578063a5bf254a14610338578063aa332ac81461039d576100c2565b806305261aea146100c757806326611b5a146100f55780632accd144146101205780633410452a1461017d57806350e69062146101a857806381d12c58146101e9575b600080fd5b6100f3600480360360208110156100dd57600080fd5b810190808035906020019092919050505061052a565b005b34801561010157600080fd5b5061010a610608565b6040518082815260200191505060405180910390f35b34801561012c57600080fd5b5061013561060e565b604051808681526020018581526020018481526020018381526020018273ffffffffffffffffffffffffffffffffffffffff1681526020019550505050505060405180910390f35b34801561018957600080fd5b50610192610654565b6040518082815260200191505060405180910390f35b3480156101b457600080fd5b506101bd61065e565b604051808273ffffffffffffffffffffffffffffffffffffffff16815260200191505060405180910390f35b3480156101f557600080fd5b506102226004803603602081101561020c57600080fd5b8101908080359060200190929190505050610684565b604051808673ffffffffffffffffffffffffffffffffffffffff168152602001806020018581526020018415158152602001838152602001828103825286818151815260200191508051906020019080838360005b83811015610292578082015181840152602081019050610277565b50505050905090810190601f1680156102bf5780820380516001836020036101000a031916815260200191505b50965050505050505060405180910390f35b3480156102dd57600080fd5b50610320600480360360208110156102f457600080fd5b81019080803573ffffffffffffffffffffffffffffffffffffffff16906020019092919050505061077f565b60405180821515815260200191505060405180910390f35b34801561034457600080fd5b506103716004803603602081101561035b57600080fd5b810190808035906020019092919050505061079f565b604051808273ffffffffffffffffffffffffffffffffffffffff16815260200191505060405180910390f35b3480156103a957600080fd5b506103b26107e3565b6040518082815260200191505060405180910390f35b3480156103d457600080fd5b50610401600480360360208110156103eb57600080fd5b81019080803590602001909291905050506107e9565b005b34801561040f57600080fd5b50610418610920565b6040518082815260200191505060405180910390f35b610436610926565b005b34801561044457600080fd5b506105286004803603606081101561045b57600080fd5b81019080803573ffffffffffffffffffffffffffffffffffffffff1690602001909291908035906020019064010000000081111561049857600080fd5b8201836020820111156104aa57600080fd5b803590602001918460018302840111640100000000831117156104cc57600080fd5b91908080601f016020809104026020016040519081016040528093929190818152602001838380828437600081840152601f19601f820116905080830192505050505050509192919290803590602001909291905050506109a0565b005b6000806000838152602001908152602001600020905060026005548161054c57fe5b0481600401541161055c57600080fd5b8060030160009054906101000a900460ff161561057857600080fd5b8060000160009054906101000a900473ffffffffffffffffffffffffffffffffffffffff1673ffffffffffffffffffffffffffffffffffffffff166108fc82600201549081150290604051600060405180830381858888f193505050501580156105e6573d6000803e3d6000fd5b5060018160030160006101000a81548160ff0219169083151502179055505050565b60015481565b600080600080600060045447600154600554600360009054906101000a900473ffffffffffffffffffffffffffffffffffffffff16945094509450945094509091929394565b6000600254905090565b600360009054906101000a900473ffffffffffffffffffffffffffffffffffffffff1681565b60006020528060005260406000206000915090508060000160009054906101000a900473ffffffffffffffffffffffffffffffffffffffff1690806001018054600181600116156101000203166002900480601f0160208091040260200160405190810160405280929190818152602001828054600181600116156101000203166002900480156107565780601f1061072b57610100808354040283529160200191610756565b820191906000526020600020905b81548152906001019060200180831161073957829003601f168201915b5050505050908060020154908060030160009054906101000a900460ff16908060040154905085565b60066020528060005260406000206000915054906101000a900460ff1681565b60008060008084815260200190815260200160002090508060000160009054906101000a900473ffffffffffffffffffffffffffffffffffffffff16915050919050565b60055481565b60008060008381526020019081526020016000209050600660003373ffffffffffffffffffffffffffffffffffffffff1673ffffffffffffffffffffffffffffffffffffffff16815260200190815260200160002060009054906101000a900460ff1661085557600080fd5b8060050160003373ffffffffffffffffffffffffffffffffffffffff1673ffffffffffffffffffffffffffffffffffffffff16815260200190815260200160002060009054906101000a900460ff16156108ae57600080fd5b60018160050160003373ffffffffffffffffffffffffffffffffffffffff1673ffffffffffffffffffffffffffffffffffffffff16815260200190815260200160002060006101000a81548160ff02191690831515021790555080600401600081548092919060010191905055505050565b60045481565b600454341161093457600080fd5b6001600660003373ffffffffffffffffffffffffffffffffffffffff1673ffffffffffffffffffffffffffffffffffffffff16815260200190815260200160002060006101000a81548160ff021916908315150217905550600560008154809291906001019190505550565b600360009054906101000a900473ffffffffffffffffffffffffffffffffffffffff1673ffffffffffffffffffffffffffffffffffffffff163373ffffffffffffffffffffffffffffffffffffffff16146109fa57600080fd5b6000806000600260008154809291906001019190505581526020019081526020016000209050838160000160006101000a81548173ffffffffffffffffffffffffffffffffffffffff021916908373ffffffffffffffffffffffffffffffffffffffff16021790555082816001019080519060200190610a7b929190610ab2565b5081816002018190555060008160030160006101000a81548160ff0219169083151502179055506000816004018190555050505050565b828054600181600116156101000203166002900490600052602060002090601f016020900481019282610ae85760008555610b2f565b82601f10610b0157805160ff1916838001178555610b2f565b82800160010185558215610b2f579182015b82811115610b2e578251825591602001919060010190610b13565b5b509050610b3c9190610b40565b5090565b5b80821115610b59576000816000905550600101610b41565b509056fea2646970667358221220b0903601ebf5d1cc9d4ffbd9b83d2d733c51c213fc3a5a22f3c4b0069cea922464736f6c63430007060033a26469706673582212205f8aab214e5f4fe340076433a71fc379bd4b15c6152ccb3a66e56bb8164c7c3c64736f6c63430007060033","opcodes":"PUSH1 0x80 PUSH1 0x40 MSTORE CALLVALUE DUP1 ISZERO PUSH2 0x10 JUMPI PUSH1 0x0 DUP1 REVERT JUMPDEST POP PUSH2 0xF38 DUP1 PUSH2 0x20 PUSH1 0x0 CODECOPY PUSH1 0x0 RETURN INVALID PUSH1 0x80 PUSH1 0x40 MSTORE CALLVALUE DUP1 ISZERO PUSH2 0x10 JUMPI PUSH1 0x0 DUP1 REVERT JUMPDEST POP PUSH1 0x4 CALLDATASIZE LT PUSH2 0x41 JUMPI PUSH1 0x0 CALLDATALOAD PUSH1 0xE0 SHR DUP1 PUSH4 0x77137B75 EQ PUSH2 0x46 JUMPI DUP1 PUSH4 0x992034D7 EQ PUSH2 0xA5 JUMPI DUP1 PUSH4 0x9EC6DEAF EQ PUSH2 0xD3 JUMPI JUMPDEST PUSH1 0x0 DUP1 REVERT JUMPDEST PUSH2 0x4E PUSH2 0x12B JUMP JUMPDEST PUSH1 0x40 MLOAD DUP1 DUP1 PUSH1 0x20 ADD DUP3 DUP2 SUB DUP3 MSTORE DUP4 DUP2 DUP2 MLOAD DUP2 MSTORE PUSH1 0x20 ADD SWAP2 POP DUP1 MLOAD SWAP1 PUSH1 0x20 ADD SWAP1 PUSH1 0x20 MUL DUP1 DUP4 DUP4 PUSH1 0x0 JUMPDEST DUP4 DUP2 LT ISZERO PUSH2 0x91 JUMPI DUP1 DUP3 ADD MLOAD DUP2 DUP5 ADD MSTORE PUSH1 0x20 DUP2 ADD SWAP1 POP PUSH2 0x76 JUMP JUMPDEST POP POP POP POP SWAP1 POP ADD SWAP3 POP POP POP PUSH1 0x40 MLOAD DUP1 SWAP2 SUB SWAP1 RETURN JUMPDEST PUSH2 0xD1 PUSH1 0x4 DUP1 CALLDATASIZE SUB PUSH1 0x20 DUP2 LT ISZERO PUSH2 0xBB JUMPI PUSH1 0x0 DUP1 REVERT JUMPDEST DUP2 ADD SWAP1 DUP1 DUP1 CALLDATALOAD SWAP1 PUSH1 0x20 ADD SWAP1 SWAP3 SWAP2 SWAP1 POP POP POP PUSH2 0x1B9 JUMP JUMPDEST STOP JUMPDEST PUSH2 0xFF PUSH1 0x4 DUP1 CALLDATASIZE SUB PUSH1 0x20 DUP2 LT ISZERO PUSH2 0xE9 JUMPI PUSH1 0x0 DUP1 REVERT JUMPDEST DUP2 ADD SWAP1 DUP1 DUP1 CALLDATALOAD SWAP1 PUSH1 0x20 ADD SWAP1 SWAP3 SWAP2 SWAP1 POP POP POP PUSH2 0x27C JUMP JUMPDEST PUSH1 0x40 MLOAD DUP1 DUP3 PUSH20 0xFFFFFFFFFFFFFFFFFFFFFFFFFFFFFFFFFFFFFFFF AND DUP2 MSTORE PUSH1 0x20 ADD SWAP2 POP POP PUSH1 0x40 MLOAD DUP1 SWAP2 SUB SWAP1 RETURN JUMPDEST PUSH1 0x60 PUSH1 0x0 DUP1 SLOAD DUP1 PUSH1 0x20 MUL PUSH1 0x20 ADD PUSH1 0x40 MLOAD SWAP1 DUP2 ADD PUSH1 0x40 MSTORE DUP1 SWAP3 SWAP2 SWAP1 DUP2 DUP2 MSTORE PUSH1 0x20 ADD DUP3 DUP1 SLOAD DUP1 ISZERO PUSH2 0x1AF JUMPI PUSH1 0x20 MUL DUP3 ADD SWAP2 SWAP1 PUSH1 0x0 MSTORE PUSH1 0x20 PUSH1 0x0 KECCAK256 SWAP1 JUMPDEST DUP2 PUSH1 0x0 SWAP1 SLOAD SWAP1 PUSH2 0x100 EXP SWAP1 DIV PUSH20 0xFFFFFFFFFFFFFFFFFFFFFFFFFFFFFFFFFFFFFFFF AND PUSH20 0xFFFFFFFFFFFFFFFFFFFFFFFFFFFFFFFFFFFFFFFF AND DUP2 MSTORE PUSH1 0x20 ADD SWAP1 PUSH1 0x1 ADD SWAP1 DUP1 DUP4 GT PUSH2 0x165 JUMPI JUMPDEST POP POP POP POP POP SWAP1 POP SWAP1 JUMP JUMPDEST PUSH1 0x0 CALLER DUP3 PUSH1 0x40 MLOAD PUSH2 0x1C9 SWAP1 PUSH2 0x2BB JUMP JUMPDEST DUP1 DUP4 PUSH20 0xFFFFFFFFFFFFFFFFFFFFFFFFFFFFFFFFFFFFFFFF AND DUP2 MSTORE PUSH1 0x20 ADD DUP3 DUP2 MSTORE PUSH1 0x20 ADD SWAP3 POP POP POP PUSH1 0x40 MLOAD DUP1 SWAP2 SUB SWAP1 PUSH1 0x0 CREATE DUP1 ISZERO DUP1 ISZERO PUSH2 0x20C JUMPI RETURNDATASIZE PUSH1 0x0 DUP1 RETURNDATACOPY RETURNDATASIZE PUSH1 0x0 REVERT JUMPDEST POP SWAP1 POP PUSH1 0x0 DUP2 SWAP1 POP PUSH1 0x0 DUP2 SWAP1 DUP1 PUSH1 0x1 DUP2 SLOAD ADD DUP1 DUP3 SSTORE DUP1 SWAP2 POP POP PUSH1 0x1 SWAP1 SUB SWAP1 PUSH1 0x0 MSTORE PUSH1 0x20 PUSH1 0x0 KECCAK256 ADD PUSH1 0x0 SWAP1 SWAP2 SWAP1 SWAP2 SWAP1 SWAP2 PUSH2 0x100 EXP DUP2 SLOAD DUP2 PUSH20 0xFFFFFFFFFFFFFFFFFFFFFFFFFFFFFFFFFFFFFFFF MUL NOT AND SWAP1 DUP4 PUSH20 0xFFFFFFFFFFFFFFFFFFFFFFFFFFFFFFFFFFFFFFFF AND MUL OR SWAP1 SSTORE POP POP POP POP JUMP JUMPDEST PUSH1 0x0 DUP2 DUP2 SLOAD DUP2 LT PUSH2 0x28C JUMPI PUSH1 0x0 DUP1 REVERT JUMPDEST SWAP1 PUSH1 0x0 MSTORE PUSH1 0x20 PUSH1 0x0 KECCAK256 ADD PUSH1 0x0 SWAP2 POP SLOAD SWAP1 PUSH2 0x100 EXP SWAP1 DIV PUSH20 0xFFFFFFFFFFFFFFFFFFFFFFFFFFFFFFFFFFFFFFFF AND DUP2 JUMP JUMPDEST PUSH2 0xC3A DUP1 PUSH2 0x2C9 DUP4 CODECOPY ADD SWAP1 JUMP INVALID PUSH1 0x80 PUSH1 0x40 MSTORE CALLVALUE DUP1 ISZERO PUSH2 0x10 JUMPI PUSH1 0x0 DUP1 REVERT JUMPDEST POP PUSH1 0x40 MLOAD PUSH2 0xC3A CODESIZE SUB DUP1 PUSH2 0xC3A DUP4 CODECOPY DUP2 DUP2 ADD PUSH1 0x40 MSTORE PUSH1 0x40 DUP2 LT ISZERO PUSH2 0x33 JUMPI PUSH1 0x0 DUP1 REVERT JUMPDEST DUP2 ADD SWAP1 DUP1 DUP1 MLOAD SWAP1 PUSH1 0x20 ADD SWAP1 SWAP3 SWAP2 SWAP1 DUP1 MLOAD SWAP1 PUSH1 0x20 ADD SWAP1 SWAP3 SWAP2 SWAP1 POP POP POP DUP2 PUSH1 0x3 PUSH1 0x0 PUSH2 0x100 EXP DUP2 SLOAD DUP2 PUSH20 0xFFFFFFFFFFFFFFFFFFFFFFFFFFFFFFFFFFFFFFFF MUL NOT AND SWAP1 DUP4 PUSH20 0xFFFFFFFFFFFFFFFFFFFFFFFFFFFFFFFFFFFFFFFF AND MUL OR SWAP1 SSTORE POP DUP1 PUSH1 0x4 DUP2 SWAP1 SSTORE POP POP POP PUSH2 0xB93 DUP1 PUSH2 0xA7 PUSH1 0x0 CODECOPY PUSH1 0x0 RETURN INVALID PUSH1 0x80 PUSH1 0x40 MSTORE PUSH1 0x4 CALLDATASIZE LT PUSH2 0xC2 JUMPI PUSH1 0x0 CALLDATALOAD PUSH1 0xE0 SHR DUP1 PUSH4 0xA13BAA64 GT PUSH2 0x7F JUMPI DUP1 PUSH4 0xD7D1BBDB GT PUSH2 0x59 JUMPI DUP1 PUSH4 0xD7D1BBDB EQ PUSH2 0x3C8 JUMPI DUP1 PUSH4 0xE6C18374 EQ PUSH2 0x403 JUMPI DUP1 PUSH4 0xED88C68E EQ PUSH2 0x42E JUMPI DUP1 PUSH4 0xF3EBE294 EQ PUSH2 0x438 JUMPI PUSH2 0xC2 JUMP JUMPDEST DUP1 PUSH4 0xA13BAA64 EQ PUSH2 0x2D1 JUMPI DUP1 PUSH4 0xA5BF254A EQ PUSH2 0x338 JUMPI DUP1 PUSH4 0xAA332AC8 EQ PUSH2 0x39D JUMPI PUSH2 0xC2 JUMP JUMPDEST DUP1 PUSH4 0x5261AEA EQ PUSH2 0xC7 JUMPI DUP1 PUSH4 0x26611B5A EQ PUSH2 0xF5 JUMPI DUP1 PUSH4 0x2ACCD144 EQ PUSH2 0x120 JUMPI DUP1 PUSH4 0x3410452A EQ PUSH2 0x17D JUMPI DUP1 PUSH4 0x50E69062 EQ PUSH2 0x1A8 JUMPI DUP1 PUSH4 0x81D12C58 EQ PUSH2 0x1E9 JUMPI JUMPDEST PUSH1 0x0 DUP1 REVERT JUMPDEST PUSH2 0xF3 PUSH1 0x4 DUP1 CALLDATASIZE SUB PUSH1 0x20 DUP2 LT ISZERO PUSH2 0xDD JUMPI PUSH1 0x0 DUP1 REVERT JUMPDEST DUP2 ADD SWAP1 DUP1 DUP1 CALLDATALOAD SWAP1 PUSH1 0x20 ADD SWAP1 SWAP3 SWAP2 SWAP1 POP POP POP PUSH2 0x52A JUMP JUMPDEST STOP JUMPDEST CALLVALUE DUP1 ISZERO PUSH2 0x101 JUMPI PUSH1 0x0 DUP1 REVERT JUMPDEST POP PUSH2 0x10A PUSH2 0x608 JUMP JUMPDEST PUSH1 0x40 MLOAD DUP1 DUP3 DUP2 MSTORE PUSH1 0x20 ADD SWAP2 POP POP PUSH1 0x40 MLOAD DUP1 SWAP2 SUB SWAP1 RETURN JUMPDEST CALLVALUE DUP1 ISZERO PUSH2 0x12C JUMPI PUSH1 0x0 DUP1 REVERT JUMPDEST POP PUSH2 0x135 PUSH2 0x60E JUMP JUMPDEST PUSH1 0x40 MLOAD DUP1 DUP7 DUP2 MSTORE PUSH1 0x20 ADD DUP6 DUP2 MSTORE PUSH1 0x20 ADD DUP5 DUP2 MSTORE PUSH1 0x20 ADD DUP4 DUP2 MSTORE PUSH1 0x20 ADD DUP3 PUSH20 0xFFFFFFFFFFFFFFFFFFFFFFFFFFFFFFFFFFFFFFFF AND DUP2 MSTORE PUSH1 0x20 ADD SWAP6 POP POP POP POP POP POP PUSH1 0x40 MLOAD DUP1 SWAP2 SUB SWAP1 RETURN JUMPDEST CALLVALUE DUP1 ISZERO PUSH2 0x189 JUMPI PUSH1 0x0 DUP1 REVERT JUMPDEST POP PUSH2 0x192 PUSH2 0x654 JUMP JUMPDEST PUSH1 0x40 MLOAD DUP1 DUP3 DUP2 MSTORE PUSH1 0x20 ADD SWAP2 POP POP PUSH1 0x40 MLOAD DUP1 SWAP2 SUB SWAP1 RETURN JUMPDEST CALLVALUE DUP1 ISZERO PUSH2 0x1B4 JUMPI PUSH1 0x0 DUP1 REVERT JUMPDEST POP PUSH2 0x1BD PUSH2 0x65E JUMP JUMPDEST PUSH1 0x40 MLOAD DUP1 DUP3 PUSH20 0xFFFFFFFFFFFFFFFFFFFFFFFFFFFFFFFFFFFFFFFF AND DUP2 MSTORE PUSH1 0x20 ADD SWAP2 POP POP PUSH1 0x40 MLOAD DUP1 SWAP2 SUB SWAP1 RETURN JUMPDEST CALLVALUE DUP1 ISZERO PUSH2 0x1F5 JUMPI PUSH1 0x0 DUP1 REVERT JUMPDEST POP PUSH2 0x222 PUSH1 0x4 DUP1 CALLDATASIZE SUB PUSH1 0x20 DUP2 LT ISZERO PUSH2 0x20C JUMPI PUSH1 0x0 DUP1 REVERT JUMPDEST DUP2 ADD SWAP1 DUP1 DUP1 CALLDATALOAD SWAP1 PUSH1 0x20 ADD SWAP1 SWAP3 SWAP2 SWAP1 POP POP POP PUSH2 0x684 JUMP JUMPDEST PUSH1 0x40 MLOAD DUP1 DUP7 PUSH20 0xFFFFFFFFFFFFFFFFFFFFFFFFFFFFFFFFFFFFFFFF AND DUP2 MSTORE PUSH1 0x20 ADD DUP1 PUSH1 0x20 ADD DUP6 DUP2 MSTORE PUSH1 0x20 ADD DUP5 ISZERO ISZERO DUP2 MSTORE PUSH1 0x20 ADD DUP4 DUP2 MSTORE PUSH1 0x20 ADD DUP3 DUP2 SUB DUP3 MSTORE DUP7 DUP2 DUP2 MLOAD DUP2 MSTORE PUSH1 0x20 ADD SWAP2 POP DUP1 MLOAD SWAP1 PUSH1 0x20 ADD SWAP1 DUP1 DUP4 DUP4 PUSH1 0x0 JUMPDEST DUP4 DUP2 LT ISZERO PUSH2 0x292 JUMPI DUP1 DUP3 ADD MLOAD DUP2 DUP5 ADD MSTORE PUSH1 0x20 DUP2 ADD SWAP1 POP PUSH2 0x277 JUMP JUMPDEST POP POP POP POP SWAP1 POP SWAP1 DUP2 ADD SWAP1 PUSH1 0x1F AND DUP1 ISZERO PUSH2 0x2BF JUMPI DUP1 DUP3 SUB DUP1 MLOAD PUSH1 0x1 DUP4 PUSH1 0x20 SUB PUSH2 0x100 EXP SUB NOT AND DUP2 MSTORE PUSH1 0x20 ADD SWAP2 POP JUMPDEST POP SWAP7 POP POP POP POP POP POP POP PUSH1 0x40 MLOAD DUP1 SWAP2 SUB SWAP1 RETURN JUMPDEST CALLVALUE DUP1 ISZERO PUSH2 0x2DD JUMPI PUSH1 0x0 DUP1 REVERT JUMPDEST POP PUSH2 0x320 PUSH1 0x4 DUP1 CALLDATASIZE SUB PUSH1 0x20 DUP2 LT ISZERO PUSH2 0x2F4 JUMPI PUSH1 0x0 DUP1 REVERT JUMPDEST DUP2 ADD SWAP1 DUP1 DUP1 CALLDATALOAD PUSH20 0xFFFFFFFFFFFFFFFFFFFFFFFFFFFFFFFFFFFFFFFF AND SWAP1 PUSH1 0x20 ADD SWAP1 SWAP3 SWAP2 SWAP1 POP POP POP PUSH2 0x77F JUMP JUMPDEST PUSH1 0x40 MLOAD DUP1 DUP3 ISZERO ISZERO DUP2 MSTORE PUSH1 0x20 ADD SWAP2 POP POP PUSH1 0x40 MLOAD DUP1 SWAP2 SUB SWAP1 RETURN JUMPDEST CALLVALUE DUP1 ISZERO PUSH2 0x344 JUMPI PUSH1 0x0 DUP1 REVERT JUMPDEST POP PUSH2 0x371 PUSH1 0x4 DUP1 CALLDATASIZE SUB PUSH1 0x20 DUP2 LT ISZERO PUSH2 0x35B JUMPI PUSH1 0x0 DUP1 REVERT JUMPDEST DUP2 ADD SWAP1 DUP1 DUP1 CALLDATALOAD SWAP1 PUSH1 0x20 ADD SWAP1 SWAP3 SWAP2 SWAP1 POP POP POP PUSH2 0x79F JUMP JUMPDEST PUSH1 0x40 MLOAD DUP1 DUP3 PUSH20 0xFFFFFFFFFFFFFFFFFFFFFFFFFFFFFFFFFFFFFFFF AND DUP2 MSTORE PUSH1 0x20 ADD SWAP2 POP POP PUSH1 0x40 MLOAD DUP1 SWAP2 SUB SWAP1 RETURN JUMPDEST CALLVALUE DUP1 ISZERO PUSH2 0x3A9 JUMPI PUSH1 0x0 DUP1 REVERT JUMPDEST POP PUSH2 0x3B2 PUSH2 0x7E3 JUMP JUMPDEST PUSH1 0x40 MLOAD DUP1 DUP3 DUP2 MSTORE PUSH1 0x20 ADD SWAP2 POP POP PUSH1 0x40 MLOAD DUP1 SWAP2 SUB SWAP1 RETURN JUMPDEST CALLVALUE DUP1 ISZERO PUSH2 0x3D4 JUMPI PUSH1 0x0 DUP1 REVERT JUMPDEST POP PUSH2 0x401 PUSH1 0x4 DUP1 CALLDATASIZE SUB PUSH1 0x20 DUP2 LT ISZERO PUSH2 0x3EB JUMPI PUSH1 0x0 DUP1 REVERT JUMPDEST DUP2 ADD SWAP1 DUP1 DUP1 CALLDATALOAD SWAP1 PUSH1 0x20 ADD SWAP1 SWAP3 SWAP2 SWAP1 POP POP POP PUSH2 0x7E9 JUMP JUMPDEST STOP JUMPDEST CALLVALUE DUP1 ISZERO PUSH2 0x40F JUMPI PUSH1 0x0 DUP1 REVERT JUMPDEST POP PUSH2 0x418 PUSH2 0x920 JUMP JUMPDEST PUSH1 0x40 MLOAD DUP1 DUP3 DUP2 MSTORE PUSH1 0x20 ADD SWAP2 POP POP PUSH1 0x40 MLOAD DUP1 SWAP2 SUB SWAP1 RETURN JUMPDEST PUSH2 0x436 PUSH2 0x926 JUMP JUMPDEST STOP JUMPDEST CALLVALUE DUP1 ISZERO PUSH2 0x444 JUMPI PUSH1 0x0 DUP1 REVERT JUMPDEST POP PUSH2 0x528 PUSH1 0x4 DUP1 CALLDATASIZE SUB PUSH1 0x60 DUP2 LT ISZERO PUSH2 0x45B JUMPI PUSH1 0x0 DUP1 REVERT JUMPDEST DUP2 ADD SWAP1 DUP1 DUP1 CALLDATALOAD PUSH20 0xFFFFFFFFFFFFFFFFFFFFFFFFFFFFFFFFFFFFFFFF AND SWAP1 PUSH1 0x20 ADD SWAP1 SWAP3 SWAP2 SWAP1 DUP1 CALLDATALOAD SWAP1 PUSH1 0x20 ADD SWAP1 PUSH5 0x100000000 DUP2 GT ISZERO PUSH2 0x498 JUMPI PUSH1 0x0 DUP1 REVERT JUMPDEST DUP3 ADD DUP4 PUSH1 0x20 DUP3 ADD GT ISZERO PUSH2 0x4AA JUMPI PUSH1 0x0 DUP1 REVERT JUMPDEST DUP1 CALLDATALOAD SWAP1 PUSH1 0x20 ADD SWAP2 DUP5 PUSH1 0x1 DUP4 MUL DUP5 ADD GT PUSH5 0x100000000 DUP4 GT OR ISZERO PUSH2 0x4CC JUMPI PUSH1 0x0 DUP1 REVERT JUMPDEST SWAP2 SWAP1 DUP1 DUP1 PUSH1 0x1F ADD PUSH1 0x20 DUP1 SWAP2 DIV MUL PUSH1 0x20 ADD PUSH1 0x40 MLOAD SWAP1 DUP2 ADD PUSH1 0x40 MSTORE DUP1 SWAP4 SWAP3 SWAP2 SWAP1 DUP2 DUP2 MSTORE PUSH1 0x20 ADD DUP4 DUP4 DUP1 DUP3 DUP5 CALLDATACOPY PUSH1 0x0 DUP2 DUP5 ADD MSTORE PUSH1 0x1F NOT PUSH1 0x1F DUP3 ADD AND SWAP1 POP DUP1 DUP4 ADD SWAP3 POP POP POP POP POP POP POP SWAP2 SWAP3 SWAP2 SWAP3 SWAP1 DUP1 CALLDATALOAD SWAP1 PUSH1 0x20 ADD SWAP1 SWAP3 SWAP2 SWAP1 POP POP POP PUSH2 0x9A0 JUMP JUMPDEST STOP JUMPDEST PUSH1 0x0 DUP1 PUSH1 0x0 DUP4 DUP2 MSTORE PUSH1 0x20 ADD SWAP1 DUP2 MSTORE PUSH1 0x20 ADD PUSH1 0x0 KECCAK256 SWAP1 POP PUSH1 0x2 PUSH1 0x5 SLOAD DUP2 PUSH2 0x54C JUMPI INVALID JUMPDEST DIV DUP2 PUSH1 0x4 ADD SLOAD GT PUSH2 0x55C JUMPI PUSH1 0x0 DUP1 REVERT JUMPDEST DUP1 PUSH1 0x3 ADD PUSH1 0x0 SWAP1 SLOAD SWAP1 PUSH2 0x100 EXP SWAP1 DIV PUSH1 0xFF AND ISZERO PUSH2 0x578 JUMPI PUSH1 0x0 DUP1 REVERT JUMPDEST DUP1 PUSH1 0x0 ADD PUSH1 0x0 SWAP1 SLOAD SWAP1 PUSH2 0x100 EXP SWAP1 DIV PUSH20 0xFFFFFFFFFFFFFFFFFFFFFFFFFFFFFFFFFFFFFFFF AND PUSH20 0xFFFFFFFFFFFFFFFFFFFFFFFFFFFFFFFFFFFFFFFF AND PUSH2 0x8FC DUP3 PUSH1 0x2 ADD SLOAD SWAP1 DUP2 ISZERO MUL SWAP1 PUSH1 0x40 MLOAD PUSH1 0x0 PUSH1 0x40 MLOAD DUP1 DUP4 SUB DUP2 DUP6 DUP9 DUP9 CALL SWAP4 POP POP POP POP ISZERO DUP1 ISZERO PUSH2 0x5E6 JUMPI RETURNDATASIZE PUSH1 0x0 DUP1 RETURNDATACOPY RETURNDATASIZE PUSH1 0x0 REVERT JUMPDEST POP PUSH1 0x1 DUP2 PUSH1 0x3 ADD PUSH1 0x0 PUSH2 0x100 EXP DUP2 SLOAD DUP2 PUSH1 0xFF MUL NOT AND SWAP1 DUP4 ISZERO ISZERO MUL OR SWAP1 SSTORE POP POP POP JUMP JUMPDEST PUSH1 0x1 SLOAD DUP2 JUMP JUMPDEST PUSH1 0x0 DUP1 PUSH1 0x0 DUP1 PUSH1 0x0 PUSH1 0x4 SLOAD SELFBALANCE PUSH1 0x1 SLOAD PUSH1 0x5 SLOAD PUSH1 0x3 PUSH1 0x0 SWAP1 SLOAD SWAP1 PUSH2 0x100 EXP SWAP1 DIV PUSH20 0xFFFFFFFFFFFFFFFFFFFFFFFFFFFFFFFFFFFFFFFF AND SWAP5 POP SWAP5 POP SWAP5 POP SWAP5 POP SWAP5 POP SWAP1 SWAP2 SWAP3 SWAP4 SWAP5 JUMP JUMPDEST PUSH1 0x0 PUSH1 0x2 SLOAD SWAP1 POP SWAP1 JUMP JUMPDEST PUSH1 0x3 PUSH1 0x0 SWAP1 SLOAD SWAP1 PUSH2 0x100 EXP SWAP1 DIV PUSH20 0xFFFFFFFFFFFFFFFFFFFFFFFFFFFFFFFFFFFFFFFF AND DUP2 JUMP JUMPDEST PUSH1 0x0 PUSH1 0x20 MSTORE DUP1 PUSH1 0x0 MSTORE PUSH1 0x40 PUSH1 0x0 KECCAK256 PUSH1 0x0 SWAP2 POP SWAP1 POP DUP1 PUSH1 0x0 ADD PUSH1 0x0 SWAP1 SLOAD SWAP1 PUSH2 0x100 EXP SWAP1 DIV PUSH20 0xFFFFFFFFFFFFFFFFFFFFFFFFFFFFFFFFFFFFFFFF AND SWAP1 DUP1 PUSH1 0x1 ADD DUP1 SLOAD PUSH1 0x1 DUP2 PUSH1 0x1 AND ISZERO PUSH2 0x100 MUL SUB AND PUSH1 0x2 SWAP1 DIV DUP1 PUSH1 0x1F ADD PUSH1 0x20 DUP1 SWAP2 DIV MUL PUSH1 0x20 ADD PUSH1 0x40 MLOAD SWAP1 DUP2 ADD PUSH1 0x40 MSTORE DUP1 SWAP3 SWAP2 SWAP1 DUP2 DUP2 MSTORE PUSH1 0x20 ADD DUP3 DUP1 SLOAD PUSH1 0x1 DUP2 PUSH1 0x1 AND ISZERO PUSH2 0x100 MUL SUB AND PUSH1 0x2 SWAP1 DIV DUP1 ISZERO PUSH2 0x756 JUMPI DUP1 PUSH1 0x1F LT PUSH2 0x72B JUMPI PUSH2 0x100 DUP1 DUP4 SLOAD DIV MUL DUP4 MSTORE SWAP2 PUSH1 0x20 ADD SWAP2 PUSH2 0x756 JUMP JUMPDEST DUP3 ADD SWAP2 SWAP1 PUSH1 0x0 MSTORE PUSH1 0x20 PUSH1 0x0 KECCAK256 SWAP1 JUMPDEST DUP2 SLOAD DUP2 MSTORE SWAP1 PUSH1 0x1 ADD SWAP1 PUSH1 0x20 ADD DUP1 DUP4 GT PUSH2 0x739 JUMPI DUP3 SWAP1 SUB PUSH1 0x1F AND DUP3 ADD SWAP2 JUMPDEST POP POP POP POP POP SWAP1 DUP1 PUSH1 0x2 ADD SLOAD SWAP1 DUP1 PUSH1 0x3 ADD PUSH1 0x0 SWAP1 SLOAD SWAP1 PUSH2 0x100 EXP SWAP1 DIV PUSH1 0xFF AND SWAP1 DUP1 PUSH1 0x4 ADD SLOAD SWAP1 POP DUP6 JUMP JUMPDEST PUSH1 0x6 PUSH1 0x20 MSTORE DUP1 PUSH1 0x0 MSTORE PUSH1 0x40 PUSH1 0x0 KECCAK256 PUSH1 0x0 SWAP2 POP SLOAD SWAP1 PUSH2 0x100 EXP SWAP1 DIV PUSH1 0xFF AND DUP2 JUMP JUMPDEST PUSH1 0x0 DUP1 PUSH1 0x0 DUP1 DUP5 DUP2 MSTORE PUSH1 0x20 ADD SWAP1 DUP2 MSTORE PUSH1 0x20 ADD PUSH1 0x0 KECCAK256 SWAP1 POP DUP1 PUSH1 0x0 ADD PUSH1 0x0 SWAP1 SLOAD SWAP1 PUSH2 0x100 EXP SWAP1 DIV PUSH20 0xFFFFFFFFFFFFFFFFFFFFFFFFFFFFFFFFFFFFFFFF AND SWAP2 POP POP SWAP2 SWAP1 POP JUMP JUMPDEST PUSH1 0x5 SLOAD DUP2 JUMP JUMPDEST PUSH1 0x0 DUP1 PUSH1 0x0 DUP4 DUP2 MSTORE PUSH1 0x20 ADD SWAP1 DUP2 MSTORE PUSH1 0x20 ADD PUSH1 0x0 KECCAK256 SWAP1 POP PUSH1 0x6 PUSH1 0x0 CALLER PUSH20 0xFFFFFFFFFFFFFFFFFFFFFFFFFFFFFFFFFFFFFFFF AND PUSH20 0xFFFFFFFFFFFFFFFFFFFFFFFFFFFFFFFFFFFFFFFF AND DUP2 MSTORE PUSH1 0x20 ADD SWAP1 DUP2 MSTORE PUSH1 0x20 ADD PUSH1 0x0 KECCAK256 PUSH1 0x0 SWAP1 SLOAD SWAP1 PUSH2 0x100 EXP SWAP1 DIV PUSH1 0xFF AND PUSH2 0x855 JUMPI PUSH1 0x0 DUP1 REVERT JUMPDEST DUP1 PUSH1 0x5 ADD PUSH1 0x0 CALLER PUSH20 0xFFFFFFFFFFFFFFFFFFFFFFFFFFFFFFFFFFFFFFFF AND PUSH20 0xFFFFFFFFFFFFFFFFFFFFFFFFFFFFFFFFFFFFFFFF AND DUP2 MSTORE PUSH1 0x20 ADD SWAP1 DUP2 MSTORE PUSH1 0x20 ADD PUSH1 0x0 KECCAK256 PUSH1 0x0 SWAP1 SLOAD SWAP1 PUSH2 0x100 EXP SWAP1 DIV PUSH1 0xFF AND ISZERO PUSH2 0x8AE JUMPI PUSH1 0x0 DUP1 REVERT JUMPDEST PUSH1 0x1 DUP2 PUSH1 0x5 ADD PUSH1 0x0 CALLER PUSH20 0xFFFFFFFFFFFFFFFFFFFFFFFFFFFFFFFFFFFFFFFF AND PUSH20 0xFFFFFFFFFFFFFFFFFFFFFFFFFFFFFFFFFFFFFFFF AND DUP2 MSTORE PUSH1 0x20 ADD SWAP1 DUP2 MSTORE PUSH1 0x20 ADD PUSH1 0x0 KECCAK256 PUSH1 0x0 PUSH2 0x100 EXP DUP2 SLOAD DUP2 PUSH1 0xFF MUL NOT AND SWAP1 DUP4 ISZERO ISZERO MUL OR SWAP1 SSTORE POP DUP1 PUSH1 0x4 ADD PUSH1 0x0 DUP2 SLOAD DUP1 SWAP3 SWAP2 SWAP1 PUSH1 0x1 ADD SWAP2 SWAP1 POP SSTORE POP POP POP JUMP JUMPDEST PUSH1 0x4 SLOAD DUP2 JUMP JUMPDEST PUSH1 0x4 SLOAD CALLVALUE GT PUSH2 0x934 JUMPI PUSH1 0x0 DUP1 REVERT JUMPDEST PUSH1 0x1 PUSH1 0x6 PUSH1 0x0 CALLER PUSH20 0xFFFFFFFFFFFFFFFFFFFFFFFFFFFFFFFFFFFFFFFF AND PUSH20 0xFFFFFFFFFFFFFFFFFFFFFFFFFFFFFFFFFFFFFFFF AND DUP2 MSTORE PUSH1 0x20 ADD SWAP1 DUP2 MSTORE PUSH1 0x20 ADD PUSH1 0x0 KECCAK256 PUSH1 0x0 PUSH2 0x100 EXP DUP2 SLOAD DUP2 PUSH1 0xFF MUL NOT AND SWAP1 DUP4 ISZERO ISZERO MUL OR SWAP1 SSTORE POP PUSH1 0x5 PUSH1 0x0 DUP2 SLOAD DUP1 SWAP3 SWAP2 SWAP1 PUSH1 0x1 ADD SWAP2 SWAP1 POP SSTORE POP JUMP JUMPDEST PUSH1 0x3 PUSH1 0x0 SWAP1 SLOAD SWAP1 PUSH2 0x100 EXP SWAP1 DIV PUSH20 0xFFFFFFFFFFFFFFFFFFFFFFFFFFFFFFFFFFFFFFFF AND PUSH20 0xFFFFFFFFFFFFFFFFFFFFFFFFFFFFFFFFFFFFFFFF AND CALLER PUSH20 0xFFFFFFFFFFFFFFFFFFFFFFFFFFFFFFFFFFFFFFFF AND EQ PUSH2 0x9FA JUMPI PUSH1 0x0 DUP1 REVERT JUMPDEST PUSH1 0x0 DUP1 PUSH1 0x0 PUSH1 0x2 PUSH1 0x0 DUP2 SLOAD DUP1 SWAP3 SWAP2 SWAP1 PUSH1 0x1 ADD SWAP2 SWAP1 POP SSTORE DUP2 MSTORE PUSH1 0x20 ADD SWAP1 DUP2 MSTORE PUSH1 0x20 ADD PUSH1 0x0 KECCAK256 SWAP1 POP DUP4 DUP2 PUSH1 0x0 ADD PUSH1 0x0 PUSH2 0x100 EXP DUP2 SLOAD DUP2 PUSH20 0xFFFFFFFFFFFFFFFFFFFFFFFFFFFFFFFFFFFFFFFF MUL NOT AND SWAP1 DUP4 PUSH20 0xFFFFFFFFFFFFFFFFFFFFFFFFFFFFFFFFFFFFFFFF AND MUL OR SWAP1 SSTORE POP DUP3 DUP2 PUSH1 0x1 ADD SWAP1 DUP1 MLOAD SWAP1 PUSH1 0x20 ADD SWAP1 PUSH2 0xA7B SWAP3 SWAP2 SWAP1 PUSH2 0xAB2 JUMP JUMPDEST POP DUP2 DUP2 PUSH1 0x2 ADD DUP2 SWAP1 SSTORE POP PUSH1 0x0 DUP2 PUSH1 0x3 ADD PUSH1 0x0 PUSH2 0x100 EXP DUP2 SLOAD DUP2 PUSH1 0xFF MUL NOT AND SWAP1 DUP4 ISZERO ISZERO MUL OR SWAP1 SSTORE POP PUSH1 0x0 DUP2 PUSH1 0x4 ADD DUP2 SWAP1 SSTORE POP POP POP POP POP JUMP JUMPDEST DUP3 DUP1 SLOAD PUSH1 0x1 DUP2 PUSH1 0x1 AND ISZERO PUSH2 0x100 MUL SUB AND PUSH1 0x2 SWAP1 DIV SWAP1 PUSH1 0x0 MSTORE PUSH1 0x20 PUSH1 0x0 KECCAK256 SWAP1 PUSH1 0x1F ADD PUSH1 0x20 SWAP1 DIV DUP2 ADD SWAP3 DUP3 PUSH2 0xAE8 JUMPI PUSH1 0x0 DUP6 SSTORE PUSH2 0xB2F JUMP JUMPDEST DUP3 PUSH1 0x1F LT PUSH2 0xB01 JUMPI DUP1 MLOAD PUSH1 0xFF NOT AND DUP4 DUP1 ADD OR DUP6 SSTORE PUSH2 0xB2F JUMP JUMPDEST DUP3 DUP1 ADD PUSH1 0x1 ADD DUP6 SSTORE DUP3 ISZERO PUSH2 0xB2F JUMPI SWAP2 DUP3 ADD JUMPDEST DUP3 DUP2 GT ISZERO PUSH2 0xB2E JUMPI DUP3 MLOAD DUP3 SSTORE SWAP2 PUSH1 0x20 ADD SWAP2 SWAP1 PUSH1 0x1 ADD SWAP1 PUSH2 0xB13 JUMP JUMPDEST JUMPDEST POP SWAP1 POP PUSH2 0xB3C SWAP2 SWAP1 PUSH2 0xB40 JUMP JUMPDEST POP SWAP1 JUMP JUMPDEST JUMPDEST DUP1 DUP3 GT ISZERO PUSH2 0xB59 JUMPI PUSH1 0x0 DUP2 PUSH1 0x0 SWAP1 SSTORE POP PUSH1 0x1 ADD PUSH2 0xB41 JUMP JUMPDEST POP SWAP1 JUMP INVALID LOG2 PUSH5 0x6970667358 0x22 SLT KECCAK256 0xB0 SWAP1 CALLDATASIZE ADD 0xEB CREATE2 0xD1 0xCC SWAP14 0x4F 0xFB 0xD9 0xB8 RETURNDATASIZE 0x2D PUSH20 0x3C51C213FC3A5A22F3C4B0069CEA922464736F6C PUSH4 0x43000706 STOP CALLER LOG2 PUSH5 0x6970667358 0x22 SLT KECCAK256 0x5F DUP11 0xAB 0x21 0x4E 0x5F 0x4F 0xE3 BLOCKHASH SMOD PUSH5 0x33A71FC379 0xBD 0x4B ISZERO 0xC6 ISZERO 0x2C 0xCB GASPRICE PUSH7 0xE56BB8164C7C3C PUSH5 0x736F6C6343 STOP SMOD MOD STOP CALLER "},"gasEstimates":{"creation":{"codeDepositCost":"779200","executionCost":"812","totalCost":"780012"},"external":{"createProject(uint256)":"infinite","deployedProjects(uint256)":"2033","get_deployed_projects()":"infinite"}},"methodIdentifiers":{"createProject(uint256)":"992034d7","deployedProjects(uint256)":"9ec6deaf","get_deployed_projects()":"77137b75"}},"storageLayout":{"storage":[{"astId":4,"contract":"BlockFundProject:ProjectManager","label":"deployedProjects","offset":0,"slot":"0","type":"t_array(t_address)dyn_storage"}],"types":{"t_address":{"encoding":"inplace","label":"address","numberOfBytes":"20"},"t_array(t_address)dyn_storage":{"base":"t_address","encoding":"dynamic_array","label":"address[]","numberOfBytes":"32"}}},"userdoc":{"kind":"user","methods":{},"version":1}}